:0A01140008080102040810204080D2
:1000B500E4FDFCC3ED9FEC9E5015E4FBFA0BBB0081
:0F00C500010AEB64324A70F50DBD00010C80E4B6
:0100D4002209
:0D010700D2A700D2A600C2A700C2A6002207
:0A011F00C2A700D2A600D2A700225A
:0A012900D2A60020A7FDC2A6002206
:10008F00E4FEEF30E704D2A78002C2A700D2A60099
:10009F0000000000C2A60000000000EF25E0FF0EE8
:0600AF00BE08DF0201297A
:1000F000AD071201077F9012008F7F4012008FAF73
:070100000512008F02011F30
:1000D500E4F9E9C394E87480948350F4AF01120005
:0B00E500F07FE87E031200B50980E701
:03000000020003F8
:0C000300787FE4F6D8FD75811702004AF2
:10000F000200D5E493A3F8E493A34003F68001F232
:10001F0008DFF48029E493A3F85407240CC8C333F2
:10002F00C4540F4420C8834004F456800146F6DFC1
:10003F00E4800B0102040810204080900114E47E3C
:10004F00019360BCA3FF543F30E509541FFEE493B6
:10005F00A360010ECF54C025E060A840B8E493A37D
:10006F00FAE493A3F8E493A3C8C582C8CAC583CAA8
:10007F00F0A3C8C582C8CAC583CADFE9DEE780BE60
:01011E0000E0
:00000001FF
