:100163003F065B4F666D7D077F6F777C395E7971E4
:0E00F300AF09AE0812010175A003AF09AE08F7
:10010100E4FDFCC3ED9FEC9E5015E4FBFA0BBB0034
:0F011100010AEB64324A70F50DBD00010C80E469
:0101200022BC
:1000AB00A9077590BFD2A6C2A6E975F00A84900184
:1000BB006393F590D2A7C2A77F0A7E00120101E4D9
:1000CB00F590D2A7C2A775907FD2A6C2A6E975F00C
:1000DB000A84E5F093F590D2A7C2A77F0A1201011B
:0800EB00E4F590D2A7C2A722A0
:1001210043B0F8E5B054F864F8601D7F147E001206
:100131000101E5B054F864F86006E5B054F8F50A39
:09014100E5B054F8FFBFF8F82204
:10005D00E50A2448601324E0602324F0602224F88C
:10006D00603924787037D20122D3E509940FE50861
:10007D0094004020E50915097023150822B20022CD
:10008D00C3E509942DE508940050090509E50970AB
:0E009D000C05082275080075091E22C20122FA
:1000030020005630012975A0011200F375A00212D9
:1000130000FD75A0061200FD75A0041200FD75A079
:100023000C1200FD75A0081200FD75A0098027754C
:10003300A0091200FD75A0081200FD75A00C1200A6
:10004300FD75A0041200FD75A0061200FD75A00247
:0A0053001200F375A0011200FD2257
:10014A0075080075091EE4F50A12012112005D12F4
:09015A000003AF091200AB80EDB7
:0300000002017387
:0C017300787FE4F6D8FD75812002014A77
:00000001FF
