:100061000F05141414280F05141414280F05141463
:100071001414140F0514141428D4D4BED49FA9D475
:10008100D4BED48E9FD4D46A7E9FA9BE77777E9F3B
:020091008E9F40
:10009300E4FDFCC3ED9FEC9E5015E4FBFA0BBB00A3
:0F00A300010AEB64324A70F50DBD00010C80E4D8
:0100B200222B
:10000300E4FDFCED90007A93750800F509ED90008E
:10001300619375F01EA4FFAEF0E4FBFAC3EB9FEA15
:100023009E502FC280900000C3E5829509E5839519
:10003300085003A380F2D280E4F583F582C3E582FE
:100043009509E58395085003A380F20BBB00010AD1
:0D00530080CA0DBD00010CED64194C70A6B3
:01006000227D
:0E00B300120003C2807F107E2712009380F29D
:030000000200C13A
:0C00C100787FE4F6D8FD7581090200B3D9
:00000001FF
