:0E008A00010601260149015E018801B801EF5F
:10005C00E4FDFCC3ED9FEC9E5015E4FBFA0BBB00DA
:0F006C00010AEB64324A70F50DBD00010C80E40F
:01007B002262
:10000300E4FDFCED25E0FFEC33FE748A2FF58274EA
:10001300003EF583E493FE740193FFE4FBFAC28090
:10002300900000C3E5829FE5839E5003A380F4D232
:1000330080E4F583F582C3E5829FE5839E5003A3A5
:1000430080F40BBB00010ABA03D4BBE8D10DBD0099
:08005300010CED64074C70ABD9
:01005B002282
:0E007C00120003C2807F107E2712005C80F20B
:0300000002009863
:0C009800787FE4F6D8FD75810702007C3B
:00000001FF
