:101EC5003000456E74657200310034003700320011
:101ED500350038003300360039002B002D004E4206
:101EE50043B5E7BBFABFD8D6C6D1DDCABECFB5CD9F
:101EF500B300546865207370656564206E6F772044
:091F05006973203A205F5F5F0060
:03000B00021FD5FC
:101FD500C0E0C0D0758CFC758A18E535B53302C2F2
:101FE500900535E535B40A05753500D290D0D0D0C9
:021FF500E032D8
:1020BA00758901758CFC758A18D28CD2A9D2AF2287
:10148D007F1F7E00121F53750E01750F307510F8FA
:10149D0075111F7B107A017D2E7C007F0E7E001250
:1014AD001F0E7BFF7A1E79C5E4F50FF5107511F847
:1014BD0075121F7D187C017F1CFE121CF5750E0127
:1014CD00750F307510F875111F7B107A017DA67C94
:1014DD00007F4A7E00121F0E7BFF7A1E79C7E4F54E
:1014ED000FF5107511F875121F7D187C017F64FEC4
:1014FD00121CF5750E00750FF07510F875111F7B28
:10150D00D07A007D2E7C007F0E7E00121F0E7BFF99
:10151D007A1E79CDE4F50FF5107511F875121F7D52
:10152D00D8FC7F1CFE121CF5750E00750FB07510E2
:10153D00F875111F7B907A007D2E7C007F0E7E004A
:10154D00121F0E7BFF7A1E79CFE4F50FF510751182
:10155D00F875121F7D98FC7F1CFE121CF5750E0090
:10156D00750F707510F875111F7B507A007D2E7CEC
:10157D00007F0E7E00121F0E7BFF7A1E79D1E4F5DF
:10158D000FF5107511F875121F7D58FC7F1CFE129A
:10159D001CF5750E00750FF07510F875111F7BD0C9
:1015AD007A007D6A7C007F4A7E00121F0E7BFF7AD7
:1015BD001E79D3E4F50FF5107511F875121F7DD84E
:1015CD00FC7F58FE121CF5750E00750FB07510F8E6
:1015DD0075111F7B907A007D6A7C007F4A7E001218
:1015ED001F0E7BFF7A1E79D5E4F50FF5107511F8F6
:1015FD0075121F7D98FC7F58FE121CF5750E007537
:10160D000F707510F875111F7B507A007D6A7C0084
:10161D007F4A7E00121F0E7BFF7A1E79D7E4F50FED
:10162D00F5107511F875121F7D58FC7F58FE121CB0
:10163D00F5750E00750FF07510F875111F7BD07ACA
:10164D00007DA67C007F867E00121F0E7BFF7A1E1A
:10165D0079D9E4F50FF5107511F875121F7DD8FCC9
:10166D007F94FE121CF5750E00750FB07510F87590
:10167D00111F7B907A007DA67C007F867E00121F55
:10168D000E7BFF7A1E79DBE4F50FF5107511F875F9
:10169D00121F7D98FC7F94FE121CF5750E00750FC0
:1016AD00707510F875111F7B507A007DA67C007F38
:1016BD00867E00121F0E7BFF7A1E79DDE4F50FF595
:1016CD00107511F875121F7D58FC7F94FE121CF5D4
:1016DD00750E00750FB07510F875111F7B507A00DF
:1016ED007DE27C007FC27E00121F0E7BFF7A1E7989
:1016FD00DFE4F50FF5107511F875121F7D78FC7F7D
:10170D00CEFE121CF5750E01750F307510F87511A2
:10171D001F7BD07A007DE27C007FC27E00121F0EFF
:10172D007BFF7A1E79E1E4F50FF5107511F875124E
:10173D001F7DF8FC7FCEFE121CF57BFF7A1E79E330
:10174D0074FFF50FF51075110075121F7D107C00DB
:10175D007F2C7E00121CF57BFF7A1E79F774FFF546
:10176D000FF51075110075121F7D287C007F207EEE
:10177D0000121CF5E5332430FB7519F8751A007548
:10178D001B00751C1F7D267C007FC07E00021E0184
:10000E00D3E530940EE52F940050030200CDE53079
:10001E00942EE52F940040030200CDE5329410E5B6
:10002E0031940150030200CDE5329430E531940154
:10003E0040030200CD750E01750F307510F8751165
:10004E00007B107A017D2E7C007F0E7E00121F0E2B
:10005E007BFF7A1E79C5E4F50FF5107511F8F512D0
:10006E007D187C017F1CFE121CF5E4F534E534246A
:10007E0030FBE4F519F51A751BF8751C1F7D26FC6F
:10008E007FC0FE121E0130B2FD750E01750F307568
:10009E0010F875111F7B107A017D2E7C007F0E7E6D
:1000AE0000121F0E7BFF7A1E79C5E4F50FF5107551
:1000BE0011F875121F7D187C017F1CFE121CF5D3E2
:1000CE00E530940EE52F9400500302018AE530943A
:1000DE002EE52F9400400302018AE53294D0E531DB
:1000EE009400500302018AE53294F0E53194004009
:1000FE000302018A750E00750FF07510F875110068
:10010E007BD07A007D2E7C007F0E7E00121F0E7B30
:10011E00FF7A1E79CDE4F50FF5107511F8F5127D05
:10012E00D8FC7F1CFE121CF5753401E5342430FB1F
:10013E00E4F519F51A751BF8751C1F7D26FC7FC09A
:10014E00FE121E0130B2FD750E00750FF07510F81F
:10015E0075111F7BD07A007D2E7C007F0E7E0012E3
:10016E001F0E7BFF7A1E79CDE4F50FF5107511F891
:10017E0075121F7DD8FC7F1CFE121CF5D3E5309442
:10018E004AE52F94005003020247E530946AE52FAA
:10019E0094004003020247E53294D0E531940050BA
:1001AE0003020247E53294F0E53194004003020267
:1001BE0047750E00750FF07510F87511007BD07A2B
:1001CE00007D6A7C007F4A7E00121F0E7BFF7A1E26
:1001DE0079D3E4F50FF5107511F8F5127DD8FC7F83
:1001EE0058FE121CF5753402E5342430FBE4F51983
:1001FE00F51A751BF8751C1F7D26FC7FC0FE121E9E
:10020E000130B2FD750E00750FF07510F875111FE7
:10021E007BD07A007D6A7C007F4A7E00121F0E7BA7
:10022E00FF7A1E79D3E4F50FF5107511F875121FCC
:10023E007DD8FC7F58FE121CF5D3E5309486E52F51
:10024E0094005003020305E53094A6E52F94004078
:10025E0003020305E53294D0E53194005003020306
:10026E0005E53294F0E53194004003020305750E66
:10027E0000750FF07510F87511007BD07A007DA611
:10028E007C007F867E00121F0E7BFF7A1E79D9E4DA
:10029E00F50FF5107511F8F5127DD8FC7F94FE124E
:1002AE001CF57534037BFF7A1E79D9E4F50FF51032
:1002BE007511F875121F7D26FC7FC0FE121CF530DD
:1002CE00B2FD750E00750FF07510F875111F7BD00D
:1002DE007A007DA67C007F867E00121F0E7BFF7A41
:1002EE001E79D9E4F50FF5107511F875121F7DD82A
:1002FE00FC7F94FE121CF5D3E530940EE52F94008E
:10030E0050030203C2E530942EE52F940040030201
:10031E0003C2E5329490E531940050030203C2E526
:10032E003294B0E531940040030203C2750E00759D
:10033E000FB07510F87511007B907A007D2E7C0041
:10034E007F0E7E00121F0E7BFF7A1E79CFE4F50F13
:10035E00F5107511F8F5127D98FC7F1CFE121CF538
:10036E00753404E5342430FBE4F519F51A751BF8E1
:10037E00751C1F7D26FC7FC0FE121E0130B2FD755E
:10038E000E00750FB07510F875111F7B907A007DF9
:10039E002E7C007F0E7E00121F0E7BFF7A1E79CF01
:1003AE00E4F50FF5107511F875121F7D98FC7F1C82
:1003BE00FE121CF5D3E530944AE52F94005003024B
:1003CE00047FE530946AE52F9400400302047FE534
:1003DE00329490E5319400500302047FE53294B0DC
:1003EE00E5319400400302047F750E00750FB07561
:1003FE0010F87511007B907A007D6A7C007F4A7E32
:10040E0000121F0E7BFF7A1E79D5E4F50FF51075DD
:10041E0011F8F5127D98FC7F58FE121CF575340507
:10042E00E5342430FBE4F519F51A751BF8751C1F1D
:10043E007D26FC7FC0FE121E0130B2FD750E0075CA
:10044E000FB07510F875111F7B907A007D6A7C00D5
:10045E007F4A7E00121F0E7BFF7A1E79D5E4F50FC0
:10046E00F5107511F875121F7D98FC7F58FE121C41
:10047E00F5D3E5309486E52F9400500302053CE554
:10048E003094A6E52F9400400302053CE53294908B
:10049E00E5319400500302053CE53294B0E5319409
:1004AE0000400302053C750E00750FB07510F8750F
:1004BE0011007B907A007DA67C007F867E00121F45
:1004CE000E7BFF7A1E79DBE4F50FF5107511F8F54A
:1004DE00127D98FC7F94FE121CF5753406E53424CB
:1004EE0030FBE4F519F51A751BF8751C1F7D26FCFB
:1004FE007FC0FE121E0130B2FD750E00750FB07575
:10050E0010F875111F7B907A007DA67C007F867E89
:10051E0000121F0E7BFF7A1E79DBE4F50FF51075C6
:10052E0011F875121F7D98FC7F94FE121CF5D3E511
:10053E0030940EE52F940050030205F9E530942E09
:10054E00E52F940040030205F9E5329450E531940D
:10055E000050030205F9E5329470E5319400400332
:10056E000205F9750E00750F707510F87511007B88
:10057E00507A007D2E7C007F0E7E00121F0E7BFFB8
:10058E007A1E79D1E4F50FF5107511F8F5127D5834
:10059E00FC7F1CFE121CF5753407E5342430FBE499
:1005AE00F519F51A751BF8751C1F7D26FC7FC0FE0C
:1005BE00121E0130B2FD750E00750F707510F875B4
:1005CE00111F7B507A007D2E7C007F0E7E00121F45
:1005DE000E7BFF7A1E79D1E4F50FF5107511F875C3
:1005EE00121F7D58FC7F1CFE121CF5D3E530944A79
:1005FE00E52F940050030206B6E530946AE52F9479
:10060E000040030206B6E5329450E53194005003E3
:10061E000206B6E5329470E531940040030206B648
:10062E00750E00750F707510F87511007B507A00FD
:10063E007D6A7C007F4A7E00121F0E7BFF7A1E7938
:10064E00D7E4F50FF5107511F8F5127D58FC7F58AB
:10065E00FE121CF5753408E5342430FBE4F519F56B
:10066E001A751BF8751C1F7D26FC7FC0FE121E011D
:10067E0030B2FD750E00750F707510F875111F7B79
:10068E00507A007D6A7C007F4A7E00121F0E7BFF2F
:10069E007A1E79D7E4F50FF5107511F875121F7DD6
:1006AE0058FC7F58FE121CF5D3E5309486E52F9446
:1006BE00005003020773E53094A6E52F9400400323
:1006CE00020773E5329450E531940050030207732C
:1006DE00E5329470E53194004003020773750E0005
:1006EE00750F707510F87511007B507A007DA67C21
:1006FE00007F867E00121F0E7BFF7A1E79DDE4F5E9
:10070E000FF5107511F8F5127D58FC7F94FE121C32
:10071E00F5753409E5342430FBE4F519F51A751B2B
:10072E00F8751C1F7D26FC7FC0FE121E0130B2FD27
:10073E00750E00750F707510F875111F7B507A00CD
:10074E007DA67C007F867E00121F0E7BFF7A1E79AF
:10075E00DDE4F50FF5107511F875121F7D58FC7F4D
:10076E0094FE121CF5D3E530944AE52F9400500305
:10077E00020835E53094A6E52F94004003020835B3
:10078E00E5329410E53194015003020835E53294B8
:10079E0030E53194014003020835750E01750F30B6
:1007AE007510F87511007B107A017DA67C007F4ACA
:1007BE007E00121F0E7BFF7A1E79C7E4F50FF5102F
:1007CE007511F8F5127D187C017F64FE121CF585FB
:1007DE003433E5332430FB7519F8751A00751B0098
:1007EE00751C1F7D267C007FC07E00121E0130B25C
:1007FE00FD750E01750F307510F875111F7B107A8F
:10080E00017DA67C007F4A7E00121F0E7BFF7A1EA2
:10081E0079C7E4F50FF5107511F875121F7D187C68
:10082E00017F64FE121CF5D3E53094C2E52F9400CF
:10083E0050030208FBE53094E2E52F9400400302DA
:10084E0008FBE5329450E531940050030208FBE5B5
:10085E003294B0E531940040030208FB750E00752A
:10086E000FB07510F87511007B507A007DE27C0098
:10087E007FC27E00121F0E7BFF7A1E79DFE4F50F1A
:10088E00F5107511F8F5127D78FC7FCEFE121CF571
:10089E00E533C3940950020533E5332430FB751953
:1008AE00F8751A00751B00751C1F7D267C007FC015
:1008BE007E00121E0130B2FD750E00750FB0751060
:1008CE00F875111F7B507A007DE27C007FC27E009E
:1008DE00121F0E7BFF7A1E79DFE4F50FF5107511EE
:1008EE00F875121F7D78FC7FCEFE121CF5D3E53015
:1008FE0094C2E52F940050030209C1E53094E2E55D
:10090E002F940040030209C1E53294D0E5319400E2
:10091E0050030209C1E5329430E5319401400302DF
:10092E0009C1750E01750F307510F87511007BD069
:10093E007A007DE27C007FC27E00121F0E7BFF7A62
:10094E001E79E1E4F50FF5107511F8F5127DF8FC3E
:10095E007FCEFE121CF5E533D3940040021533E52D
:10096E00332430FB7519F8751A00751B00751C1FA2
:10097E007D267C007FC07E00121E0130B2FD750EFA
:10098E0001750F307510F875111F7BD07A007DE25E
:10099E007C007FC27E00121F0E7BFF7A1E79E1E47F
:1009AE00F50FF5107511F875121F7DF8FC7FCEFE50
:0409BE00121CF522F0
:101FF70075369375372075330512179D1220D61243
:1020070020BA12148D121C44BF01FA12000E80F57B
:1009C2000000000000000000000000000000000025
:1009D2000000001010101010101000001818000075
:1009E2000012362448000000000000000000000051
:1009F200000000242424FE484848FE4848480000DD
:100A02000000103854545030181414545438101034
:100A120000000044A4A8A8A8541A2A2A2A440000C4
:100A220000000030484848506EA49488897600003F
:100A320000606020C0000000000000000000000014
:100A42000002040808101010101010080804020018
:100A52000040201010080808080808101020400064
:100A6200000000001010D63838D610100000000028
:100A72000000000010101010FE10101010000000F6
:100A8200000000000000000000000000606020C0C4
:100A920000000000000000007F00000000000000D5
:100AA2000000000000000000000000006060000084
:100AB2000000010202040408081010202040400037
:100AC20000000018244242424242424224180000DE
:100AD200000000107010101010101010107C000098
:100AE2000000003C4242420404081020427E000002
:100AF2000000003C42420418040202424438000052
:100B0200000000040C14242444447E04041E00004B
:100B12000000007E40404058640202424438000017
:100B22000000001C24404058644242422418000045
:100B32000000007E4444080810101010101000003D
:100B42000000003C4242422418244242423C00003F
:100B52000000001824424242261A020224380000F1
:100B62000000000000001818000000001818000023
:100B72000000000000000010000000000010102023
:100B820000000002040810204020100804020000A7
:100B9200000000000000FE000000FE000000000057
:100BA2000000004020100804020408102040000049
:100BB2000000003C424262020408080018180000CB
:100BC20000000038445AAAAAAAAAB4424438000033
:100BD2000000001010182828243C444242E700007C
:100BE200000000F8444444784442424244F8000081
:100BF2000000003E424280808080804244380000F3
:100C0200000000F8444242424242424244F800009C
:100C1200000000FC424848784848404242FC00003C
:100C2200000000FC424848784848404040E000004C
:100C32000000003C44448080808E8444443800009C
:100C4200000000E7424242427E42424242E7000046
:100C52000000007C1010101010101010107C00000A
:100C62000000003E0808080808080808080888F07C
:100C7200000000EE444850705048484444EE0000E2
:100C8200000000E0404040404040404042FE000042
:100C9200000000EE6C6C6C6C5454545454D600003A
:100CA200000000C7626252524A4A4A4646E20000C7
:100CB20000000038448282828282828244380000AC
:100CC200000000FC424242427C40404040E00000C2
:100CD20000000038448282828282B2CA4C38060006
:100CE200000000FC4242427C4848444442E3000087
:100CF2000000003E4242402018040242427C0000B2
:100D0200000000FE92101010101010101038000099
:100D1200000000E74242424242424242423C00005C
:100D2200000000E742424424242828181010000042
:100D3200000000D692929292AAAA6C444444000007
:100D4200000000E7422424181818242442E7000077
:100D5200000000EE44442828101010101038000043
:100D62000000007E840408081020204242FC00009B
:100D7200001E1010101010101010101010101E0075
:100D82000000404020201010100808040404020251
:100D92000078080808080808080808080808780001
:100DA200001C220000000000000000000000000003
:100DB200000000000000000000000000000000FF32
:100DC20000601000000000000000000000000000B1
:100DD200000000000000003C421E2242423F000090
:100DE200000000C040404058644242426458000043
:100DF200000000000000001C22404040221C0000B5
:100E0200000000060202021E22424242261B00008D
:100E1200000000000000003C427E4040423C0000D6
:100E22000000000F1110107E10101010107C000036
:100E3200000000000000003E444438403C42423C76
:100E4200000000C04040405C6242424242E7000073
:100E5200000000303000007010101010107C0000F4
:100E62000000000C0C00001C040404040404447878
:100E7200000000C04040404E4850684844EE000028
:100E8200000000701010101010101010107C0000E4
:100E920000000000000000FE4949494949ED0000F8
:100EA20000000000000000DC6242424242E7000013
:100EB200000000000000003C42424242423C00006E
:100EC20000000000000000D864424242447840E042
:100ED200000000000000001E22424242221E0207C1
:100EE20000000000000000EE3220202020F8000068
:100EF200000000000000003E42403C02427C000034
:100F0200000000000010107C10101010100C0000E7
:100F120000000000000000C642424242463B000080
:100F220000000000000000E7422424281010000006
:100F320000000000000000D79292AAAA44440000D8
:100F4200000000000000006E24181818247600002B
:100F520000000000000000E742242428181010E0DE
:100F6200000000000000007E44081010227E0000F5
:100F72000003040404040408040404040404030035
:100F820008080808080808080808080808080808DF
:100F920000601010101010081010101010106000D7
:100FA200304C430000000000000000000000000080
:100FB2000000007E7E7E7E7E7E7E7E7E00000000C1
:100FC200B5E70100010001003FF8210821083FF8C0
:100FD2002108210821083FF821080102010200FE30
:100FE2000000BBFA100010F81088FE8810881088E4
:100FF20038883488548850889108110A120A120AD3
:1010020014061000BFD8100010201010FDFE1104AD
:101012001050148C19043000D1FC10201020102024
:10102200102053FE2000D6C62404340424243FA4F6
:10103200442404247FA404243FA424A424A424A498
:101042002484278405140408D1DD4080204027FE33
:10105200040483F8504013F8224823F82248C24877
:1010620043F84000411041084208CABE00001FF880
:101072000000000000007FFE01000100112011109D
:101082002108410C8104010005000200CFB5007C5B
:101092003F800220042008401F8003200C103FF8EC
:1010A200108C04A008901088208442840100CDB3E3
:1010B2001040102023FE20404440F888090413FE0B
:1010C20020947C90009000901D12E112020E040008
:091F8A007C00121B5E7F1E7E002C
:101F9300E4FDFCC3ED9FEC9E5014E4FBFA0BBB0085
:0E1FA300010AEBF44A70F60DBD00010C80E55A
:011FB100220D
:10209200C2A2C2A5D2A3C2A48F80D2A0C2A08D80A8
:0520A200D2A4D2A2222D
:1020A700C2A2D2A58F80D2A0C2A08D80C2A4D2A482
:0320B700D2A22290
:0420E100AD07AC0695
:0520E500AF040220A77A
:101A4B007D01FCFF121B5E7D007C017F01121B5E82
:101A5B007D007C077F02121B5E7D307C107F0312A2
:101A6B001B5EE4FDFC7F04121B5E7402FDFC7F0811
:101A7B00121B5EE4FDFC7F09121B5EE4FDFC7F0A7A
:101A8B00121B5EE4FDFC7F0C121B5EE4FDFC7F0D64
:101A9B00121B5EE4FDFC7F0F121B5E7F1E7E00128D
:101AAB001F937DB07C167F10121B5E7F1E7E001273
:101ABB001F937D077C007F11121B5E7D3A7C017F9B
:101ACB0012121B5E7D007C1A7F13121B5E7F1E7E23
:101ADB0000121F937D0C7C007F29121B5E7F1E7EE4
:101AEB0000121F93E4FDFC7F30121B5E7405FDFC9E
:101AFB007F31121B5E7D047C037F32121B5E7D06E1
:101B0B007C007F35121B5E7407FDFC7F36121B5E5B
:101B1B007D057C017F37121B5E7D027C007F3812B6
:101B2B001B5E7407FDFC7F39121B5E7D047C077FF7
:101B3B003C121B5E7D077C087F3D121B5EE4FDFCA7
:101B4B007F50121B5E7DEF7C007F51121B5EE4FD0C
:031B5B00FC7F52BA
:061B5E00AB05AA04AC0770
:101B6400AF02AE07AD04E4FF122092AF06AD03024C
:021B740020A7A8
:041F53008E088F095C
:101F5700752901752A40E4FBFA7DF0FCFFFE121E8D
:101F67007CE4FBFA900000AF09AE081220E1A3E57C
:101F77008264F0458370F00BBB00010ABA01E5BB30
:021F870040E236
:011F89002235
:061E01008B188D828C831A
:091E0700EF2407121E69E4FBFA46
:101E1000AF18EF3395E0FEEFC4F8540FC868FFEE3B
:101E2000C454F048FEEF2BFFEE3AFE74C22FF58249
:101E300074073EF583E493F51D900000E51D30E73F
:101E400006AF1AAE198004AF1CAE1B1220E1E51DCF
:0D1E500025E0F51DA3E5826408458370DFE1
:0B1E5D000BBB00010AEB64104A70A8E8
:011E68002257
:0A1B76008B188A19891A8D828C835E
:101B8000EF240F121E69E4F51FF520AB18AA19A95E
:101B90001A12142DFF900FC275F022E52012148145
:101BA000E51F75F022A42583F583E4936F6003029B
:101BB0001C2F900001121446FF900FC375F022E510
:101BC00020121481E51F75F022A42583F583E49388
:051BD0006F705CFBFAE0
:101BD500900FC475F022E520121481E51F75F022DF
:101BE500A42583F583E5822BF582E5833AF583E425
:101BF50093752100F522900000E52230E706AF1C21
:101C0500AE1B8004AF1EAE1D1220E1E52225E0F5D6
:0F1C150022E52133F521A3E5826408458370DAC7
:101C24000BBB00010AEB64204A70A60520E5207076
:0F1C340002051FC39440E51F94005003021B8B51
:011C4300227E
:0E1CF5008E088F098C0A8D0B8B0C8A0D890EC0
:101D0300E4F513AB0CAA0DA90E12142D606CC39449
:101D130080E51375F008502FA42509FFE50835F079
:101D2300FE12142DFB850F1985101A85111B8512C0
:101D33001CAD0BAC0A121E017401250EF50EE43521
:101D43000DF50D051380BCA42509FFE50835F0FE4C
:101D5300AB0CAA0DA90E850F1B85101C85111D85C3
:101D6300121EAD0BAC0A121B767402250EF50EE49F
:0A1D7300350DF50D051305138089E9
:011D7D002243
:0C1F0E008E088F098C0A8D0B8A0C8B0D3D
:101F1A00850E29850F2A121E7CAB0DAA0CD3EB95D0
:101F2A000FEA950E5022850982850883D3E58295AA
:101F3A000BE583950A500AAF11AE101220E1A38077
:081F4A00EB0BBB00010A80D57E
:011F5200226C
:10179D00D2A17F017E00121F93C2A17F0A121F9357
:1017AD00D2A17F32121F93E53764207004E53664B1
:1017BD00937024121A4B7D3F7C017F53121B5E7D6B
:1017CD00007C277F60121B5E7D017C007F61121BF8
:1017DD005EE4FDFC021815E53764057004E536641A
:1017ED00156003021892121A4B7D3F7C017F531234
:1017FD001B5E7D007C277F60121B5E7D017C007F60
:10180D0061121B5E7D007C277F6A121B5EE4FDFC6E
:10181D007F20121B5EE4FDFC7F21121B5EE4FDFCAC
:10182D007F80121B5EE4FDFC7F81121B5EE4FDFCDC
:10183D007F82121B5EE4FDFC7F83121B5EE4FDFCC8
:10184D007F84121B5EE4FDFC7F85121B5E7D107C88
:10185D00007F90121B5EE4FDFC7F92121B5E7D03E8
:10186D007C007F93121B5E7D107C017F95121B5EA9
:10187D00E4FDFC7F97121B5EE4FDFC7F98121B5E5E
:10188D007D73021A43E53764287004E5366493606E
:10189D0003021A4AFD7C017F01121B5E7D007C074D
:1018AD007F02121B5E7D307C107F03121B5EE4FDF8
:1018BD00FC7F04121B5E7D017C007FA4121B5E74F5
:1018CD0002FDFC7F08121B5EE4FDFC7F09121B5E0E
:1018DD00E4FDFC7F0A121B5EE4FDFC7F0C121B5E17
:1018ED00E4FDFC7F0D121B5EE4FDFC7F0F121B5E01
:1018FD00E4FDFC7F10121B5E7D077C007F11121B27
:10190D005EE4FDFC7F12121B5EE4FDFC7F13121FD3
:10191D008C7D907C167F10121B5E7D277C027F11C3
:10192D00121F8C7D1C7F12121F8A7D007C187F1365
:10193D00121B5E7D1C7C007F29121B5E7D0D7F2B93
:10194D00121F8AE4FDFC7F20121B5EE4FDFC7F214B
:10195D00121B5E7D077C007F30121B5E7D027C03B7
:10196D007F31121B5E7D057C017F32121B5E7D0671
:10197D007C027F35121B5E7408FDFC7F36121B5EE8
:10198D007D067C027F37121B5E7D047C057F38123D
:10199D001B5E7D077C007F39121B5E7D057C017F00
:1019AD003C121B5E7408FDFC121B43121F8F7D3F02
:1019BD007C017F53121F8C7D007CA77F60121B5E04
:1019CD007D017C007F61121B5EE4FDFC7F6A121BB2
:1019DD005EE4FDFC7F80121B5EE4FDFC7F81121B2B
:1019ED005EE4FDFC7F82121B5EE4FDFC7F83121B17
:1019FD005EE4FDFC7F84121B5EE4FDFC7F85121B03
:101A0D005E7D107C007F90121B5EE4FDFC7F9212C8
:101A1D001B5E7D037C007F93121B5E7D107C017F1E
:101A2D0095121B5EE4FDFC7F97121B5EE4FDFC7FAF
:0E1A3D0098121B5E7D337C017F07121B5E2218
:101E6900FDE43EFCAB82AA83E582240FF52AE43522
:031E790083F529C5
:101E7C008E238F248C258D268B828A83AD24AC23D4
:101E8C007F50121B5EAD26AC257F51121B5EAD82BE
:101E9C00AC837F52121B5EAD2AAC297F53121B5EA2
:101EAC00AD24AC237F20121B5EAD82AC837F21124C
:091EBC001B5E7D22E4FF0220926E
:102017008A388B398D828C83AD07AC06AB82AA8355
:1020270085832985822A121E7CAF39AE380220E1CA
:10207500122037D2B77F017E00122087C2B77F01B9
:022085007E00DB
:0B208700EF1FAC0670011E4C70F6222B
:0B20D600C2B7D2B6D2B5D2B7C2B62254
:02203700AD07F3
:10203900E4FBED30E704D2B58002C2B5122081D2AB
:0C204900B7122083ED25E0FD0BBB08E67C
:012055002268
:10205600E4FDFBFAEB25E0FBEA33FA12207830B315
:0E206600050BBB00010A0DBD0CEAAE02AF0374
:012074002249
:101FB200C2B67F901220751220568E138F147FD0D6
:101FC2001220751220568E118F12D2B67B007A0023
:021FD200791183
:011FD40022EA
:101D7E00E4FDD3E5129516E5119515400CE5129587
:101D8E0016FFE5119515FE800BC3E5169512FFE5BE
:101D9E00159511FED3E5149518E5139517400CE52E
:101DAE00149518FBE5139517FA800BC3E5189514D7
:101DBE00FBE5179513FAC3EF940FEE6480948050F1
:101DCE002FC3EB940FEA6480948050247D01E512BA
:101DDE002516FFE5113515C313F52BEF13F52CE57D
:101DEE00142518FFE5133517C313F52DEF13F52E34
:021DFE00AF052F
:011E000022BF
:101C4400E4F50830B203021CF2121FB278097C00DA
:101C54007D007E007F04121407121FB2780D7C00F1
:101C64007D007E007F0412140778117C007D007BC8
:101C7400007A0079097E007F0412140778157C002D
:101C84007D007B007A00790D7E007F041214071218
:101C94001D7EEF64017057E52C24CDFDE52B34FE49
:101CA400FCE412127DE4FBFA797078431210D27BC3
:101CB400007A70795A78451211DB1212B68E2F8F82
:101CC40030E52E2430FDE52D34FFFCE412127DE4D2
:101CD400FBFA79A078431210D27B007AF079557818
:101CE400451211DB1212B68E318F32750801AF081E
:011CF40022CD
:1010D200EC4D6011E8497017ED33EC3304600DE418
:1010E200FCFFFEFD22E933E8330470F802132212FA
:1010F20012ED58046009E4CC2481500628500902FC
:10110200132C284003021329C0E0EB4A7044B98033
:1011120006D0E0FB021318EF4E701CBD8008EBFFF7
:10112200EAFEE9FD80EBE98DF0A4FEE5F00211BBD9
:10113200E9CDF9EAFEEBFFEF89F0A4FCE5F0CE89F8
:10114200F0A42EFFE435F0CD89F0A42DFEE435F0B5
:101152008067EF4E7005BD80D780C3EF8BF0A4ACE3
:10116200F0EE8BF0A42CFCE435F0F8EF8AF0A42C1E
:10117200E5F038FCE433CB8DF0A42CFCE5F03BF831
:10118200EE8AF0A42CFCE5F038F8E433CF89F0A421
:101192002CFCE5F038CF3400CE89F0A42FFFE5F027
:1011A2003EFEE433C98DF0A42EFEE5F039CD8AF07F
:1011B200A42FFFE5F03EFEE43DFD33D0E0FB5007F7
:1011C2000BBB000F02132CEC2CFCEF33FFEE33FEB3
:0611D200ED33FD021304E1
:1011D80002132CEC5D046005E85904700302132225
:1011E8001212ED580460F6EC4860F2EC7004FDFE53
:1011F800FF22C860DB2481C85009C39860025006EA
:101208000213299850CAF582E9294B4A7005AB8226
:1012180002131875F0007C1A7880C3EF9BEE9AEDE4
:1012280099400DC3EF9BFFEE9AFEED99FDE842F061
:10123800DC23ACF0D0E0FFD0E0FED0E0FDAB8220B4
:10124800E7101BEB60BAEC2CFCEF33FFEE33FEED3E
:1012580033FD021304E803F830E705C0F075F00029
:10126800EF2FFFEE33FEED33FD40B830E7C280AA22
:1012780075F020800E75F010800575F0087D007EF1
:10128800007F003392D530D503121473EC3340102D
:10129800EF33FFEE33FEED33FDEC33FCD5F0ED22FA
:0E12A800E5F0247EA2D513CC92E7CDCEFF2236
:1012B600EDD2E7CD33EC3392D524814006E4FFFE30
:1012C600FDFC22FCE4CFCECDCC24E0501174FF808F
:1012D600EDC3CC13CCCD13CDCE13CECF13CF04702C
:0712E600F030D5DE021473A5
:1012ED00E9D2E7C933E833F892D5EDD2E7CD33EC47
:0712FD0033FC5002B2D522C0
:10130400EC30E7100FBF000C0EBE00080DBD00044A
:101314000BEB6014A2D5EB13FCED92E7FD2274FFF6
:10132400FCFDFEFF22E480F8A2D574FF13FC7D804F
:03133400E480EF63
:030000000220CA11
:0C20CA00787FE4F6D8FD758139021FF71D
:10133700E709F608DFFA8046E709F208DFFA803E98
:1013470088828C83E709F0A3DFFA8032E309F60885
:10135700DFFA8078E309F208DFFA807088828C83ED
:10136700E309F0A3DFFA806489828A83E0A3F608A1
:10137700DFFA805889828A83E0A3F208DFFA804C7B
:1013870080D280FA80C680D4806980F28033801052
:1013970080A680EA809A80A880DA80E280CA8033BB
:1013A70089828A83ECFAE493A3C8C582C8CCC58333
:1013B700CCF0A3C8C582C8CCC583CCDFE9DEE78003
:1013C7000D89828A83E493A3F608DFF9ECFAA9F082
:1013D700EDFB2289828A83ECFAE0A3C8C582C8CCD8
:1013E700C583CCF0A3C8C582C8CCC583CCDFEADEF1
:1013F700E880DB89828A83E493A3F208DFF980CC53
:1014070088F0EF60010E4E60C388F0ED2402B4044B
:101417000050B9F582EB2402B4040050AF232345F2
:061427008223901387737D
:10142D00BB010689828A83E0225002E722BBFE02BD
:09143D00E32289828A83E49322F0
:10144600BB010CE58229F582E5833AF583E022505B
:1014560006E92582F8E622BBFE06E92582F8E222A5
:0D146600E58229F582E5833AF583E49322BF
:0E147300C3E49FFFE49EFEE49DFDE49CFC228A
:0C148100A42582F582E5F03583F5832276
:00000001FF
