:100077003F065B4F666D7D077F6F777C395E7971D1
:10000E00E508F4F590D2A0C2A0AF09E508A807084C
:10001E008002C333D8FCF508E50990007793F5907C
:10002E00D2A1C2A10509E509C394084006E4F50969
:04003E00750801221E
:10006700758901758CF8758A2FD28CD2A9D2AF22E7
:03000B00020042AE
:10004200C0E0C083C082C0D075D000C000C00775B8
:100052008CF8758A2F12000ED007D000D0D0D08233
:05006200D083D0E03264
:0500030012006780FE01
:0300000002008774
:0C008700787FE4F6D8FD758109020003C3
:00000001FF
