:10009C002020BACFB7CAECBFBBCDB5E7D7D3202051
:1000AC0000207777772E68667768647A2E636F6D99
:0200BC00200022
:0A004C00C2A4D2A38F807F0A7E00B9
:10005600E4FDFCC3ED9FEC9E5015E4FBFA0BBB00E0
:0F006600010AEB64644A70F50DBD00010C80E4E3
:010075002268
:0E00DB00C2A5D2A4D2A3E58020E7FBC2A322D7
:0B00F5001200DBC2A512004CC2A322C7
:0B0100001200DBD2A512004CC2A322AB
:1000BE00D2A2C2A0120052D2A07F301200F57F0C45
:0D00CE001200F57F011200F57F060200F51B
:100003008A088B09A907ED14600F1460111460139B
:1000130024037016E92480800DE924908008E924E4
:10002300888003E92498FF1200F5850982850883F7
:10003300E493FFD39400401012010012005205090B
:09004300E50970E6050880E222DF
:100076001200BE7A007B9CE4FDFF1200037A007B2F
:10008600AD7D01E4FF1200037F887E131200567FC8
:06009600011200F580DDFF
:030000000200E912
:0C00E900787FE4F6D8FD758109020076EE
:00000001FF
