:1005280010125468652074656D70206E6F772069AD
:0E053800733A0A082020200000002E00EB433A
:06057400D2A77F0A7E0001
:0A057A00EF1F70011E144E70F722EF
:0A047100C2A4D2A38F807F147E0086
:10047B00E4FDFCC3ED9FEC9E5015E4FBFA0BBB00B7
:0F048B00010AEB64784A70F50DBD00010C80E4A6
:01049A00223F
:08058400C2A5120471C2A322FA
:08058C00D2A5120471C2A322E2
:10049B007F80120584E4F9741229F8E6FF12058CAB
:1004AB0009B910F37FC6120584E4F9740829F8E63C
:0804BB00FF12058C09B90AF3D8
:0104C3002216
:100560007F011205847F061205847F0E1205847FA9
:0405700038020584C4
:1004E700120574C2A77FF47E0112057AD2A77FC8CE
:1004F7007E0012057AA2A7E433F5247F0A7E000264
:02050700057A73
:02050900AD073C
:10050B00E4FBC2A7120576ED1392A77F327E001291
:0C051B00057AD2A7EDC313FD0BBB08E668
:0105270022B1
:1004C400E4FDFCEDC313FDC2A712057612057430DA
:1004D400A7034305807F327E0012057A0CBC08E333
:0204E400AF0562
:0104E60022F3
:04032300AB07AA0674
:10032700EA30E712EBF4FFEAF4FEEF2401FBE43EC8
:10033700FA750BB08003750B2BAD03AC02E4120208
:1003470006E4FBFA7980783D1200FB7BCD7ACC7905
:100357004C783D12000A8F278E268D258C24E4FFCA
:10036700FE7D207C41AB27AA26A925A8241200FBE5
:1003770012023FAA06AB077C007D0A1202C0ED24D9
:1003870030F50F7C007D64AF03AE021202C0EF248C
:1003970030F50CAE02AF037C007D641202C07E0014
:1003A7007F0ACFCDCFCECCCE1202C0EF2430F50DD1
:0103B7002223
:100444001204E77FCC1205097F441205091204E760
:100454007FCC1205097FBE1205091204C4AB071232
:0C04640004C4EFFE7C00E42BFFEC3EFE25
:010470002269
:100547001205601204448E228F2312032312049B88
:090557007FF47E0112047B80EAAE
:100003000202ABE86480F8E933E83360110460F07E
:10001300ED33EC337009E8FCE9FDEAFEEBFF220463
:1000230060DED3EB9FEA9EE99DE8C2E78CF0C2F75E
:1000330095F0400CE8CCF8E9CDF9EACEFAEBCFFB2A
:1000430012027685D0F05804700320D5B3E804700B
:10005300075002B2D50202B592D5EC0460F7E4CCA6
:10006300C0E0C398F8603B94186008400DD0E0FBF3
:1000730002028DE4FBFAC9FC8028E830E406E4C9F7
:10008300FBE4CAFCE830E305E4C9CACBFCE8540747
:100093006010F8C3E913F9EA13FAEB13FBEC13FC52
:1000A300D8F130F52FC3E49CFCEF9BFFEE9AFEEDF5
:1000B30099FDD0E0FBEF4E4D4C701222DB030202A0
:1000C300B2EC2CFCEF33FFEE33FEED33FDED30E706
:1000D300EB02028DEF2BFFEE3AFEED39FDD0E0FB94
:1000E30050130BBB00030202B5ED13FDEE13FEEF3D
:0800F30013FFEC13FC02028D67
:1000FB00EC4D6011E8497017ED33EC3304600DE4FF
:10010B00FCFFFEFD22E933E8330470F80202AB1268
:10011B00027658046009E4CC248150062850090269
:10012B0002B52840030202B2C0E0EB4A7044B9802A
:10013B0006D0E0FB0202A1EF4E701CBD8008EBFF66
:10014B00EAFEE9FD80EBE98DF0A4FEE5F00201E4A7
:10015B00E9CDF9EAFEEBFFEF89F0A4FCE5F0CE89DF
:10016B00F0A42EFFE435F0CD89F0A42DFEE435F09C
:10017B008067EF4E7005BD80D780C3EF8BF0A4ACCA
:10018B00F0EE8BF0A42CFCE435F0F8EF8AF0A42C05
:10019B00E5F038FCE433CB8DF0A42CFCE5F03BF818
:1001AB00EE8AF0A42CFCE5F038F8E433CF89F0A408
:1001BB002CFCE5F038CF3400CE89F0A42FFFE5F00E
:1001CB003EFEE433C98DF0A42EFEE5F039CD8AF066
:1001DB00A42FFFE5F03EFEE43DFD33D0E0FB5007DE
:1001EB000BBB000F0202B5EC2CFCEF33FFEE33FE22
:0601FB00ED33FD02028D50
:1002010075F020800E75F010800575F0087D007E78
:10021100007F003392D530D503120315EC33401023
:10022100EF33FFEE33FEED33FDEC33FCD5F0ED2281
:0E023100E5F0247EA2D513CC92E7CDCEFF22BD
:10023F00EDD2E7CD33EC3392D524814006E4FFFEB7
:10024F00FDFC22FCE4CFCECDCC24E0501174FF8016
:10025F00EDC3CC13CCCD13CDCE13CECF13CF0470B3
:07026F00F030D5DE0203159B
:10027600E9D2E7C933E833F892D5EDD2E7CD33ECCE
:0702860033FC5002B2D52247
:10028D00EC30E7100FBF000C0EBE00080DBD0004D2
:10029D000BEB6014A2D5EB13FCED92E7FD2274FF7E
:1002AD00FCFDFEFF22E480F8A2D574FF13FC7D80D7
:0302BD00E480EFEB
:030000000203B840
:0C03B800787FE4F6D8FD7581270203FF72
:1002C000BC000BBE0029EF8DF084FFADF022E4CC22
:1002D000F875F008EF2FFFEE33FEEC33FCEE9DECEB
:1002E000984005FCEE9DFE0FD5F0E9E4CEFD22ED31
:1002F000F8F5F0EE8420D21CFEADF075F008EF2F7B
:10030000FFED33FD4007985006D5F0F222C398FD6B
:050310000FD5F0EA2208
:0E031500C3E49FFFE49EFEE49DFDE49CFC22F9
:1003C400020547E493A3F8E493A34003F68001F203
:1003D40008DFF48029E493A3F85407240CC8C3333A
:1003E400C4540F4420C8834004F456800146F6DF09
:1003F400E4800B0102040810204080900528E47E6C
:10040400019360BCA3FF543F30E509541FFEE493FD
:10041400A360010ECF54C025E060A840B8E493A3C4
:10042400FAE493A3F8E493A3C8C582C8CAC583CAEF
:10043400F0A3C8C582C8CAC583CADFE9DEE780BEA7
:0105460000B4
:00000001FF
