:10008F003F065B4F666D7D077F6F777C395E7971B9
:10009F00102410020FDF0FBA0F940F6D0F440F1AB9
:1000AF000EEF0EC30E950E660E370E060DD40DA174
:1000BF000D6D0D390D030CCD0C960C5E0C260BEE51
:1000CF000BB50B7C0B420B080ACF0A950A5B0A2172
:1000DF0009E809AE0975093D090508CD0896085FBD
:1000EF00082907F407C0078C0759072706F606C625
:1000FF0006960668063A060E05E205B8058E0565F2
:08010F00053D051704F104CCC5
:0901BE0093F590D2A1C2A17F0AC1
:1001C700E4FDFCC3ED9FEC9E5015E4FBFA0BBB006E
:0F01D700010AEB64644A70F50DBD00010C80E471
:0101E60022F6
:10011700A9077590DFD2A0C2A0E5186008759040C6
:10012700E4F5188003E4F590D2A1C2A17F0A7E000E
:100137001201C7E4F590D2A1C2A17590BFD2A0C2A7
:10014700A0E975F00A8490008F1201BEE4F590D201
:10015700A1C2A175907FD2A0C2A0E975F00A84E57B
:0C016700F01201BEE4F590D2A1C2A1226A
:10017300E4FF1202347E007C007D13120259E4FD79
:10018300ED25E0249FF582E43400F583D3740193D5
:100193009FE4939E4008ED943C50030D80E2EDC331
:1001A300940A500BC3740A9DF5197518018005ED67
:0B01B30024F6F519AF1912011780B5F2
:0A028800080801020408102040805D
:0D027B00D2A700D2A600C2A700C2A6002292
:0A029300C2A700D2A600D2A70022E5
:0A029D00D2A60020A7FDC2A6002291
:10026B00300004D2A78002C2A7D2A600C2A60022E9
:10020E00E4FEEF30E704D2A78002C2A700D2A60018
:10021E0000000000C2A60000000000EF25E0FF0E67
:06022E00BE08DF02029D84
:1001E700D2A700E4FED2A60000000000EF25E0FD44
:1001F700A2A7E4334DFFC2A600000000000EBE0810
:06020700E4C20012026BCC
:01020D0022CE
:02023400AD0714
:1002360012027B7F9012020EED4440FF12020E1254
:10024600027B7F9112020E1201E7D20012026B129C
:02025600029311
:010258002283
:03000000020003F8
:0C000300787FE4F6D8FD75812002004AE9
:10025900EF8DF0A4A8F0CF8CF0A428CE8DF0A42EB9
:02026900FE2273
:10000F00020173E493A3F8E493A34003F68001F293
:10001F0008DFF48029E493A3F85407240CC8C333F2
:10002F00C4540F4420C8834004F456800146F6DFC1
:10003F00E4800B0102040810204080900288E47EC7
:10004F00019360BCA3FF543F30E509541FFEE493B6
:10005F00A360010ECF54C025E060A840B8E493A37D
:10006F00FAE493A3F8E493A3C8C582C8CAC583CAA8
:10007F00F0A3C8C582C8CAC583CADFE9DEE780BE60
:01029200006B
:00000001FF
