:02010A00C10032
:10000300E4FDFCC3ED9FEC9E5015E4FBFA0BBB0033
:0F001300010AEB64324A70F50DBD00010C80E468
:0100220022BB
:1000E200759850E4F58743A890758920758DE6755B
:0500F2008BE6D28E2216
:030023000200F7E1
:0B00F700309807C298859908D20032AB
:080102008F993099FDC299228A
:1000B2001200E220A0117F647E0012000330A0FD36
:1000C200D2B27FAA120102C2B23000E7C200E50832
:1000D200B4AAE0C2807F887E13120003D28080D34C
:03000000020026D5
:0C002600787FE4F6D8FD75812002006DA3
:100032000200B2E493A3F8E493A34003F68001F232
:1000420008DFF48029E493A3F85407240CC8C333CF
:10005200C4540F4420C8834004F456800146F6DF9E
:10006200E4800B010204081020408090010AE47E23
:10007200019360BCA3FF543F30E509541FFEE49393
:10008200A360010ECF54C025E060A840B8E493A35A
:10009200FAE493A3F8E493A3C8C582C8CAC583CA85
:1000A200F0A3C8C582C8CAC583CADFE9DEE780BE3D
:01010C0000F2
:00000001FF
