:0A004C00C374C89582FFE49583FE9B
:10005600E4FDFCC3ED9FEC9E5015E4FBFA0BBB00E0
:0F006600010AEB64324A70F50DBD00010C80E415
:010075002268
:100003009000007590FFAF82AE83120056E4F59026
:1000130012004CA3E58264C8458370E77590FF7FA7
:10002300887E13120056E4F583F582C3E58294C8F3
:10003300E583940050CAE4F590AF82AE8312005674
:090043007590FF12004CA380E24D
:0300000002007685
:0C007600787FE4F6D8FD758107020003D6
:00000001FF
