:10012B003F065B4F666D7D077F6F777C395E79711C
:1000E700E4FDFCC3ED9FEC9E5015E4FBFA0BBB004F
:0F00F700010AEB64324A70F50DBD00010C80E484
:0101060022D6
:1000760075B0F0E5B054F064F0601E7F147E001297
:1000860000E7E5B054F064F0600FE5B054F0FF759A
:09009600B00FE5B0540F4FF51155
:01009F00223E
:10000E00EF1200A000737700677B005B7D004F7ED0
:10001E000070B70064BB0058BD004CBE006DD70029
:10002E0061DB0055DD0049DE006AE7005EEB005241
:10003E00ED0046EE000000757F00227F01227F0258
:10004E00227F03227F04227F05227F06227F072242
:10005E007F08227F09227F0A227F0B227F0C227FBC
:08006E000D227F0E227F0F22FC
:10010700E4F590D2A0C2A0E51090012B93F590D210
:04011700A1C2A122BE
:03000B000200C62A
:1000C600C0E0C083C082C0D075D008120076AF11E0
:1000D60012000E8F10120107D0D0D082D083D0E04C
:0100E60032E7
:10011B00758901758CD8758AF0D28CD2A9D2AF2291
:0500030012011B80FE4C
:0300000002013BBF
:0C013B00787FE4F6D8FD75811102000306
:1000A000D083D082F8E4937012740193700DA3A3EF
:1000B00093F8740193F5828883E473740293686003
:0600C000EFA3A3A380DF03
:00000001FF
