:100185003F065B4F666D7D077F6F00000000000036
:0900EA0093F590D2A1C2A17F0A96
:1000F300E4FDFCC3ED9FEC9E5015E4FBFA0BBB0043
:0F010300010AEB64644A70F50DBD00010C80E445
:0101120022CA
:10008F00A9077590DFD2A0C2A0E975F06484900132
:10009F008593F590D2A1C2A17F0A7E001200F3E4EE
:1000AF00F590D2A1C2A17590BFD2A0C2A0E975F000
:1000BF006484E5F075F00A841200EAE4F590D2A1A9
:1000CF00C2A175907FD2A0C2A0E975F00A84E5F0B5
:0B00DF001200EAE4F590D2A1C2A122B9
:0C01B200E4FF1201608F1812008F80F42F
:0A01BE000808010204081020408028
:0D01A500D2A700D2A600C2A700C2A6002269
:0A01C900C2A700D2A600D2A70022B0
:0A01D300D2A60020A7FDC2A600225C
:10019500300004D2A78002C2A7D2A600C2A60022C0
:10013A00E4FEEF30E704D2A78002C2A700D2A600ED
:10014A0000000000C2A60000000000EF25E0FF0E3C
:06015A00BE08DF0201D324
:10011300D2A700E4FED2A60000000000EF25E0FD18
:10012300A2A7E4334DFFC2A600000000000EBE08E4
:06013300E4C20012019578
:0101390022A3
:02016000AD07E9
:100162001201A57F9012013AED4440FF12013A12AA
:1001720001A57F9112013A120113D20012019512C8
:0201820001C9B1
:010184002258
:03000000020003F8
:0C000300787FE4F6D8FD75812002004AE9
:10000F000201B2E493A3F8E493A34003F68001F254
:10001F0008DFF48029E493A3F85407240CC8C333F2
:10002F00C4540F4420C8834004F456800146F6DFC1
:10003F00E4800B01020408102040809001BEE47E92
:10004F00019360BCA3FF543F30E509541FFEE493B6
:10005F00A360010ECF54C025E060A840B8E493A37D
:10006F00FAE493A3F8E493A3C8C582C8CAC583CAA8
:10007F00F0A3C8C582C8CAC583CADFE9DEE780BE60
:0101C8000036
:00000001FF
