:0B00C100070849206765742000C1009B
:10000300759850E4F58743A890758920758DE6753A
:050013008BE6D28E22F5
:03002300020018C0
:0B001800309807C29885990FD2003283
:0800CD008F993099FDC29922C0
:0F00B2001200033000FDC200AF0F1200CD80F42A
:03000000020026D5
:0C002600787FE4F6D8FD75812002006DA3
:100032000200B2E493A3F8E493A34003F68001F232
:1000420008DFF48029E493A3F85407240CC8C333CF
:10005200C4540F4420C8834004F456800146F6DF9E
:10006200E4800B01020408102040809000C1E47E6D
:10007200019360BCA3FF543F30E509541FFEE49393
:10008200A360010ECF54C025E060A840B8E493A35A
:10009200FAE493A3F8E493A3C8C582C8CAC583CA85
:1000A200F0A3C8C582C8CAC583CADFE9DEE780BE3D
:0100CC000033
:00000001FF
