:10033C0012032812026E1200D01200031202058062
:01034C00F5BB
:0A02B400C2A4D2A38F807F147E0045
:1002BE00E4FDFCC3ED9FEC9E5015E4FBFA0BBB0076
:0F02CE00010AEB64644A70F50DBD00010C80E479
:0102DD0022FE
:08037100C2A51202B4C2A322CE
:04035A0029F8E6FF99
:08035E00D2A51202B4C2A322D1
:100003007F801203717F3212035E7F3012035EE43E
:10001300F9741412035A09B902F77F2D12035EE42F
:10002300F9741012035A09B902F77F2D12035EE423
:10003300F9740E12035A09B902F77F8D120371E5A1
:100043001324CFB4070040030200CF90005C75F087
:1000530003A4C58325F0C5837302007102007A02ED
:1000630000880200960200A40200B20200C07F4D85
:1000730012035E7F6F804D7F5412035E7F75120300
:100083005E7F6580447F5712035E7F6512035E7F48
:100093006480367F5412035E7F6812035E7F75802F
:1000A300287F4612035E7F7212035E7F69801A7F88
:1000B3005312035E7F6112035E7F74800C7F5312C1
:0C00C300035E7F7512035E7F6E12035E09
:0100CF00220E
:100205007FC01203717F4112035E7F6C12035E7F14
:100215006112035E7F3A12035EE51D600C147018CF
:100225007F4F12035E7F6E800C7F4F12035E7F66E9
:1002350012035E7F6612035E7FC8120371E4F974D0
:100245000C12035A09B902F77F3A12035EE4F974F6
:100255000A12035A09B902F77F3A12035EE4F974E8
:080265000812035A09B902F75F
:01026D00226E
:100328007F011203717F061203717F0E1203717F22
:040338003802037113
:1002DE000716000000220822110E082020202020E0
:0902EE00202020202020202020E7
:0602F800C292C290D292F6
:1002FE007E08EF139291D29000C290EFC313FFDEEF
:01030E00F1FD
:01030F0022CB
:10031000E4FF7E08D291EFC313FF309103430780BF
:07032000D29000C290DEED57
:0103270022B3
:0D034D001202F8AF051202FED290C29222F9
:0A0366001202F8120310D290C292A6
:01037000226A
:10026E00E4FD7F8E12034D7DAA7F9012034DAD16D5
:10027E007F8012034DAD177F8212034DAD187F8420
:10028E0012034DAD197F8612034DAD1A7F881203EE
:10029E004DAD1B7F8A12034DAD1C7F8C12034D7D1D
:0602AE00807F8E02034D6B
:1000D0007F811203668F16E516C4540F2430F5088D
:1000E000E516540F2430F5097F831203668F17E558
:1000F00017C4540F2430F50AE517540F2430F50BBC
:100100007F851203668F18E518C4540F2430F50C50
:10011000E518540F2430F50D7F871203668F19E51B
:1001200019C4540F2430F50EE519540F2430F50F7F
:100130007F891203668F1AE51AC4540F2430F51014
:10014000E51A540F2430F5117F8B1203668F1BE5DF
:100150001BC4540F2430F512E51B540F2430F51343
:100160007F8D1203668F1CE51CC4540F2430F514D8
:09017000E51C540F2430F51522A2
:0300000002017981
:0C017900787FE4F6D8FD75811D0201C0FE
:1001850002033CE493A3F8E493A34003F68001F251
:1001950008DFF48029E493A3F85407240CC8C3337B
:1001A500C4540F4420C8834004F456800146F6DF4A
:1001B500E4800B01020408102040809002DEE47EFA
:1001C500019360BCA3FF543F30E509541FFEE4933F
:1001D500A360010ECF54C025E060A840B8E493A306
:1001E500FAE493A3F8E493A3C8C582C8CAC583CA31
:1001F500F0A3C8C582C8CAC583CADFE9DEE780BEE9
:0102F7000006
:00000001FF
