:030000000200A358
:0C00A300787FE4F6D8FD7581140200EAB5
:0402300002110000B7
:03000B0002012FC0
:10012F00C0E0C0F0C083C082C0D075D000C000C096
:10013F0001C002C003C004C005C006C007758CFC17
:10014F00758A170512E51270020511C394E8E511BF
:10015F00648094834009751100751201120189D0D2
:10016F0007D006D005D004D003D002D001D000D0E4
:0A017F00D0D082D083D0F0D0E0325F
:10022000758901758CFF758A9BD28CD2A9D2AF22B9
:0500030012022080FE46
:1001EF00E4FDFCC3ED9FEC9E5015E4FBFA0BBB0046
:0F01FF00010AEB64324A70F50DBD00010C80E47B
:01020E0022CD
:10000E0075B0F0E5B054F064F0601E7F147E0012FF
:10001E0001EFE5B054F064F0600FE5B054F0FF75F9
:10002E00B00FE5B0540F4FF514E5141201C9009D41
:10003E007700917B00857D00797E009AB7008EBB9C
:10004E000082BD0076BE0097D7008BDB007FDD00FF
:10005E0073DE0094E70088EB007CED0070EE00008C
:10006E0000A07F00227F01227F02227F03227F04D5
:10007E00227F05227F06227F07227F08227F092208
:10008E007F0A227F0B227F0C227F0D227F0E227F82
:04009E000F227FFFAF
:0100A200223B
:10020F003F065B4F666D7D077F6F777C395E797137
:01021F0000DE
:0A0234000808000102030405060794
:10018900AF107480A807088002C313D8FCF4F58067
:10019900D2A0C2A074082510F8E6FF3395E0FE74DA
:1001A9000F2FF58274023EF583E493F580D2A1C244
:1001B900A10510C3E510648094884003E4F510227A
:1000AF00020003E493A3F8E493A34003F68001F264
:1000BF0008DFF48029E493A3F85407240CC8C33352
:1000CF00C4540F4420C8834004F456800146F6DF21
:1000DF00E4800B0102040810204080900230E47E7F
:1000EF00019360BCA3FF543F30E509541FFEE49316
:1000FF00A360010ECF54C025E060A840B8E493A3DD
:10010F00FAE493A3F8E493A3C8C582C8CAC583CA07
:10011F00F0A3C8C582C8CAC583CADFE9DEE780BEBF
:01023E0000BF
:1001C900D083D082F8E4937012740193700DA3A3C5
:1001D90093F8740193F5828883E4737402936860D9
:0601E900EFA3A3A380DFD9
:00000001FF
