:1001E000100854686520636F6465206E6F7720691E
:0201F000733A60
:1001F300C2A5C2A4D2A38F807F147E001201A7C21E
:02020300A32234
:10020500D2A5C2A4D2A38F807F147E001201A7C2FB
:02021500A32222
:100183007FC41201F3E4F518E51824C4FF1201F348
:1001930074482518F8E6FF1202050518E518C394FC
:0301A3000C40E528
:0101A6002236
:100127007F011201F37F061201F37F0E1201F37FA5
:10013700381201F3E4F518E5182480FF1201F3746F
:10014700082518F8E6FF1202050518E518C39410EC
:0201570040E581
:010159002283
:100217003031323334353637383941424344454635
:1001A700E4FDFCC3ED9FEC9E5015E4FBFA0BBB008E
:0F01B700010AEB64644A70F50DBD00010C80E491
:0101C6002216
:03000B00020006EA
:030006000543327D
:030003000200E612
:0900E600C0E0C0D075D000C000DC
:1000EF00300029E543C3943F500AE543C3942140B0
:1000FF000375210074222521F8A6437543000521BD
:10010F00E521B4210CD2017521008005754300D281
:01011F0000DF
:07012000D000D0D0D0E03286
:0D022700758902E4F58CF58AD2A9D28C22EB
:07023400D288D2A8D2AF224C
:10015A007E01E4FD7C01EFC313FF74222EF8E6D37F
:10016A00940740034307800E0CBC09EA74442DF837
:08017A00A607E4FF0DBD04DC43
:01018200225A
:10009A00E544C4540F90021793F548E544540F936E
:1000AA00F549E545C4540F93F54AE545540F93F5D0
:1000BA004B754C2D754D28E546C4540F93F54EE506
:1000CA0046540F93F54F75502FE547C4540F93F5D7
:0C00DA0051E547540F93F552755329224D
:1001C7001202341202271201273001FD12015A12BE
:0901D700009A120183C20180F0BC
:0300000002000EED
:0C000E00787FE4F6D8FD7581570200559C
:10001A000201C7E493A3F8E493A34003F68001F234
:10002A0008DFF48029E493A3F85407240CC8C333E7
:10003A00C4540F4420C8834004F456800146F6DFB6
:10004A00E4800B01020408102040809001E0E47E65
:10005A00019360BCA3FF543F30E509541FFEE493AB
:10006A00A360010ECF54C025E060A840B8E493A372
:10007A00FAE493A3F8E493A3C8C582C8CAC583CA9D
:10008A00F0A3C8C582C8CAC583CADFE9DEE780BE55
:0101F200000C
:00000001FF
