:1000B900100820202057656C636F6D6520546F20F0
:1000C90020201018207777772E68667768647A2E53
:0400D900636F6D20C4
:0A008F00C2A4D2A38F807F147E006C
:10009900E4FDFCC3ED9FEC9E5015E4FBFA0BBB009D
:0F00A900010AEB64644A70F50DBD00010C80E4A0
:0100B8002225
:08013900C2A512008FC2A3222F
:08014100D2A512008FC2A32217
:1000FB007F80120139E4F9740829F8E6FF120141F7
:04010B0009B910F32B
:01010F0022CD
:100110007FC0120139E4F9741829F8E6FF12014191
:0401200009B910F316
:0101240022B8
:100125007F011201397F061201397F0E1201397FD5
:040135003802013952
:1000DE001201251200FB120110E4F97F18120139EA
:0D00EE007FB87E0B12009909B910F080EC6C
:03000000020003F8
:0C000300787FE4F6D8FD75812702004AE2
:10000F000200DEE493A3F8E493A34003F68001F229
:10001F0008DFF48029E493A3F85407240CC8C333F2
:10002F00C4540F4420C8834004F456800146F6DFC1
:10003F00E4800B01020408102040809000B9E47E98
:10004F00019360BCA3FF543F30E509541FFEE493B6
:10005F00A360010ECF54C025E060A840B8E493A37D
:10006F00FAE493A3F8E493A3C8C582C8CAC583CAA8
:10007F00F0A3C8C582C8CAC583CADFE9DEE780BE60
:0100DD000022
:00000001FF
