:03000000020134C6
:0C013400787FE4F6D8FD75815102017B54
:10034F00000000000000000000000000000000009E
:10035F00000000000000000000000000000000008E
:08036F00000000000000000086
:0E03C200050D344310100105083443101001DE
:10039000E4FEEEC39F5009E4FD0DBD32FC0E80F279
:0103A000223A
:0B03DE00EFD394004004001F80F622C3
:100243007F641203DEC295D296C2977B007A00794F
:100253000D7551057F3012028D7A007908120286DE
:100263007D017F211203A17D017F221203A1E4FD01
:100273007F251203A17D147F311203A17D077F2601
:030283000203A1D2
:10037700E4FEEF3392B7EF25E0FFD297A2B6E4335E
:080387004207C2970EBE08EA0E
:01038F00224B
:0C03D100C296120377E4FF120377D29665
:0103DD0022FD
:1003A100C296120377AC07AF05120377D296AF045A
:0103B1002229
:0602BF008B4E8A4F8950AE
:1002C500C296120377AD07E4FCECC395515017E4D1
:1002D500FF120377AB4EAA4FA9508C82758300EFAE
:0A02E5001201120C80E3D296AF055F
:0102EF0022EC
:070286007B007551057F2A82
:06028D008B4E8A4F8950E0
:10029300C296120377AD07E4FCECC395515018AB3B
:1002A3004E0550E550AA4F7002054F14F91200F99C
:0B02B300FF1203770C80E2D296AF052B
:0102BE00221D
:1003B200C2957D0F7F201203A1D2957F820203DEB8
:060321008B4A8A4B894C57
:10032700E4FB7F071203D18F20300612C295AB4A38
:10033700AA4BA94C7551147F611202BF7B01AD20F6
:070347007F271203A1AF03A1
:01034E00228C
:0602F0007B007A00792278
:1002F6008B4A8A4B894CC2957A00790D120286ABDD
:100306004AAA4BA94C7551147FA012028D7D0E7F0F
:0B031600201203A1D2957F0A0203DE33
:1001C000E4F52178227C00FD7BFF7A03794FFE7FE6
:1001D000141200D378367C007D007BFF7A037963AC
:1001E0007E007F141200D31202437523017524018F
:1001F0001202F07F707E1712039020A00B30A0FD3A
:10020000752301752101C280E521B401131202F0AA
:10021000E4F523F524F5217FE87E03120390D280D4
:100220001203B27B007A007936120321E537B4015C
:1002300002C2807FE87E03120390D280E4F537F596
:030240003880B74C
:100140000201C0E493A3F8E493A34003F68001F214
:1001500008DFF48029E493A3F85407240CC8C333C0
:10016000C4540F4420C8834004F456800146F6DF8F
:10017000E4800B01020408102040809003C2E47E5A
:10018000019360BCA3FF543F30E509541FFEE49384
:10019000A360010ECF54C025E060A840B8E493A34B
:1001A000FAE493A3F8E493A3C8C582C8CAC583CA76
:1001B000F0A3C8C582C8CAC583CADFE9DEE780BE2E
:0103D000002C
:10000300E709F608DFFA8046E709F208DFFA803EDF
:1000130088828C83E709F0A3DFFA8032E309F608CC
:10002300DFFA8078E309F208DFFA807088828C8334
:10003300E309F0A3DFFA806489828A83E0A3F608E8
:10004300DFFA805889828A83E0A3F208DFFA804CC2
:1000530080D280FA80C680D4806980F28033801099
:1000630080A680EA809A80A880DA80E280CA803302
:1000730089828A83ECFAE493A3C8C582C8CCC5837A
:10008300CCF0A3C8C582C8CCC583CCDFE9DEE7804A
:100093000D89828A83E493A3F608DFF9ECFAA9F0C9
:1000A300EDFB2289828A83ECFAE0A3C8C582C8CC1F
:1000B300C583CCF0A3C8C582C8CCC583CCDFEADE38
:1000C300E880DB89828A83E493A3F208DFF980CC9A
:1000D30088F0EF60010E4E60C388F0ED2402B40493
:1000E3000050B9F582EB2402B4040050AF2323453A
:0600F3008223900053730C
:1000F900BB010689828A83E0225002E722BBFE0205
:09010900E32289828A83E4932237
:10011200F8BB010DE58229F582E5833AF583E8F023
:10012200225006E92582C8F622BBFE05E92582C8CF
:02013200F222B7
:00000001FF
